{
  "address": "0x169106769462cC1DC488753323821aBc11113b3a",
  "abi": [
    {
      "inputs": [
        {
          "internalType": "address",
          "name": "_atiaShrine",
          "type": "address"
        }
      ],
      "stateMutability": "nonpayable",
      "type": "constructor"
    },
    {
      "anonymous": false,
      "inputs": [
        {
          "indexed": false,
          "internalType": "uint8",
          "name": "version",
          "type": "uint8"
        }
      ],
      "name": "Initialized",
      "type": "event"
    },
    {
      "inputs": [
        {
          "internalType": "address",
          "name": "user",
          "type": "address"
        },
        {
          "internalType": "string",
          "name": "id",
          "type": "string"
        },
        {
          "internalType": "bytes",
          "name": "args",
          "type": "bytes"
        }
      ],
      "name": "checkRestriction",
      "outputs": [
        {
          "internalType": "bool",
          "name": "",
          "type": "bool"
        }
      ],
      "stateMutability": "view",
      "type": "function"
    },
    {
      "inputs": [
        {
          "internalType": "address",
          "name": "user",
          "type": "address"
        },
        {
          "internalType": "bytes",
          "name": "args",
          "type": "bytes"
        }
      ],
      "name": "hasBlessingStatus",
      "outputs": [
        {
          "internalType": "bool",
          "name": "",
          "type": "bool"
        }
      ],
      "stateMutability": "view",
      "type": "function"
    },
    {
      "inputs": [
        {
          "internalType": "address",
          "name": "user",
          "type": "address"
        },
        {
          "internalType": "bytes",
          "name": "args",
          "type": "bytes"
        }
      ],
      "name": "hasBlessingStreak",
      "outputs": [
        {
          "internalType": "bool",
          "name": "",
          "type": "bool"
        }
      ],
      "stateMutability": "view",
      "type": "function"
    },
    {
      "inputs": [
        {
          "internalType": "address",
          "name": "user",
          "type": "address"
        },
        {
          "internalType": "bytes",
          "name": "args",
          "type": "bytes"
        }
      ],
      "name": "hasRonBalance",
      "outputs": [
        {
          "internalType": "bool",
          "name": "",
          "type": "bool"
        }
      ],
      "stateMutability": "view",
      "type": "function"
    },
    {
      "inputs": [
        {
          "internalType": "address",
          "name": "user",
          "type": "address"
        },
        {
          "internalType": "bytes",
          "name": "args",
          "type": "bytes"
        }
      ],
      "name": "hasTokenBalance",
      "outputs": [
        {
          "internalType": "bool",
          "name": "",
          "type": "bool"
        }
      ],
      "stateMutability": "view",
      "type": "function"
    },
    {
      "inputs": [
        {
          "internalType": "address",
          "name": "user",
          "type": "address"
        },
        {
          "internalType": "bytes",
          "name": "",
          "type": "bytes"
        }
      ],
      "name": "isBlessingActive",
      "outputs": [
        {
          "internalType": "bool",
          "name": "",
          "type": "bool"
        }
      ],
      "stateMutability": "view",
      "type": "function"
    },
    {
      "inputs": [
        {
          "internalType": "address",
          "name": "user",
          "type": "address"
        },
        {
          "internalType": "bytes",
          "name": "",
          "type": "bytes"
        }
      ],
      "name": "isBlessingInactive",
      "outputs": [
        {
          "internalType": "bool",
          "name": "",
          "type": "bool"
        }
      ],
      "stateMutability": "view",
      "type": "function"
    },
    {
      "inputs": [
        {
          "internalType": "string",
          "name": "id",
          "type": "string"
        }
      ],
      "name": "isValidRestriction",
      "outputs": [
        {
          "internalType": "bool",
          "name": "",
          "type": "bool"
        }
      ],
      "stateMutability": "view",
      "type": "function"
    },
    {
      "inputs": [
        {
          "internalType": "bytes4",
          "name": "interfaceId",
          "type": "bytes4"
        }
      ],
      "name": "supportsInterface",
      "outputs": [
        {
          "internalType": "bool",
          "name": "",
          "type": "bool"
        }
      ],
      "stateMutability": "view",
      "type": "function"
    }
  ],
  "transactionHash": "0xb7b6145667298384001c731ed0ff9e08c6ec25a9f38741c6ca5e912a91456aa9",
  "args": [
    "0xd5c5afefad9ea288acbaaebeacec5225dd3d6d2b"
  ],
  "numDeployments": 1,
  "solcInputHash": "262893efc35459e8ef8708a72995fc26",
  "bytecode": "0x60806040523480156200001157600080fd5b5060405162000f8538038062000f858339810160408190526200003491620006c9565b80600060026101000a8154816001600160a01b0302191690836001600160a01b0316021790555060405180604001604052806200039f60201b6200018e176001600160401b03168152602001600115158152506001604051620000ae9070686173426c657373696e6753746174757360781b815260110190565b9081526040805191829003602090810183208451815495830151151568010000000000000000026001600160481b03199096166001600160401b039182161795909517905582820182526200045762000446821b17909316825260019282018390525190919062000135906f6973426c657373696e6741637469766560801b815260100190565b9081526040805191829003602090810183208451815495830151151568010000000000000000026001600160481b03199096166001600160401b0391821617959095179055828201825262000399620004c6821b179093168252600192820183905251909190620001be90716973426c657373696e67496e61637469766560701b815260120190565b9081526040805191829003602090810183208451815495830151151568010000000000000000026001600160481b03199096166001600160401b03918216179590951790558282018252620002fd62000547821b179093168252600192820183905251909190620002469070686173426c657373696e6753747265616b60781b815260110190565b9081526040805191829003602090810183208451815495830151151568010000000000000000026001600160481b03199096166001600160401b03918216179590951790558282018252620004cc620005e8821b179093168252600192820183905251909190620002ca906c686173526f6e42616c616e636560981b8152600d0190565b9081526040805191829003602090810183208451815495830151151568010000000000000000026001600160481b03199096166001600160401b039182161795909517905582820182526200023062000616821b17909316825260019282018390525190919062000350906e686173546f6b656e42616c616e636560881b8152600f0190565b908152604051602091819003820190208251815493909201516001600160401b039092166001600160481b03199093169290921768010000000000000000911515919091021790555062000784565b60008082806020019051810190620003b89190620006f0565b600080546040516368de040960e11b81526001600160a01b038881166004830152939450919262010000909104169063d1bc081290602401602060405180830381865afa1580156200040e573d6000803e3d6000fd5b505050506040513d601f19601f82011682018060405250810190620004349190620006f0565b15159115159190911491505092915050565b600080546040516368de040960e11b81526001600160a01b0385811660048301528392620100009004169063d1bc081290602401602060405180830381865afa15801562000498573d6000803e3d6000fd5b505050506040513d601f19601f82011682018060405250810190620004be9190620006f0565b949350505050565b600080546040516368de040960e11b81526001600160a01b0385811660048301528392620100009004169063d1bc081290602401602060405180830381865afa15801562000518573d6000803e3d6000fd5b505050506040513d601f19601f820116820180604052508101906200053e9190620006f0565b15949350505050565b6000808280602001905181019062000560919062000714565b60008054604051635eeadb0d60e01b81526001600160a01b0388811660048301529394509192620100009091041690635eeadb0d906024016040805180830381865afa158015620005b5573d6000803e3d6000fd5b505050506040513d601f19601f82011682018060405250810190620005db91906200072e565b5091909111949350505050565b6000808280602001905181019062000601919062000714565b6001600160a01b038516311191505092915050565b60008060008380602001905181019062000631919062000753565b6040516370a0823160e01b81526001600160a01b03888116600483015292945090925082918416906370a0823190602401602060405180830381865afa15801562000680573d6000803e3d6000fd5b505050506040513d601f19601f82011682018060405250810190620006a6919062000714565b1195945050505050565b6001600160a01b0381168114620006c657600080fd5b50565b600060208284031215620006dc57600080fd5b8151620006e981620006b0565b9392505050565b6000602082840312156200070357600080fd5b81518015158114620006e957600080fd5b6000602082840312156200072757600080fd5b5051919050565b600080604083850312156200074257600080fd5b505080516020909101519092909150565b600080604083850312156200076757600080fd5b82516200077481620006b0565b6020939093015192949293505050565b6107f180620007946000396000f3fe608060405234801561001057600080fd5b50600436106100935760003560e01c80637db29fc9116100665780637db29fc9146100f8578063a61763fd1461010b578063a8bdda041461011e578063b6b715e614610131578063dc5485991461014457600080fd5b806301ffc9a714610098578063384197b2146100bf578063565255ad146100d2578063646b3662146100e5575b600080fd5b6100ab6100a6366004610502565b610157565b604051901515815260200160405180910390f35b6100ab6100cd3660046105ee565b61018e565b6100ab6100e03660046105ee565b610230565b6100ab6100f336600461063e565b6102c5565b6100ab6101063660046105ee565b6102fd565b6100ab6101193660046105ee565b610399565b6100ab61012c366004610673565b610417565b6100ab61013f3660046105ee565b610457565b6100ab6101523660046105ee565b6104cc565b60006001600160e01b0319821663666b763360e11b148061018857506301ffc9a760e01b6001600160e01b03198316145b92915050565b600080828060200190518101906101a591906106e9565b600080546040516368de040960e11b81526001600160a01b038881166004830152939450919262010000909104169063d1bc081290602401602060405180830381865afa1580156101fa573d6000803e3d6000fd5b505050506040513d601f19601f8201168201806040525081019061021e91906106e9565b15159115159190911491505092915050565b600080600083806020019051810190610249919061070b565b6040516370a0823160e01b81526001600160a01b03888116600483015292945090925082918416906370a0823190602401602060405180830381865afa158015610297573d6000803e3d6000fd5b505050506040513d601f19601f820116820180604052508101906102bb9190610739565b1195945050505050565b60006001826040516102d79190610752565b9081526040519081900360200190205460ff680100000000000000009091041692915050565b600080828060200190518101906103149190610739565b60008054604051635eeadb0d60e01b81526001600160a01b0388811660048301529394509192620100009091041690635eeadb0d906024016040805180830381865afa158015610368573d6000803e3d6000fd5b505050506040513d601f19601f8201168201806040525081019061038c9190610781565b5091909111949350505050565b600080546040516368de040960e11b81526001600160a01b0385811660048301528392620100009004169063d1bc081290602401602060405180830381865afa1580156103ea573d6000803e3d6000fd5b505050506040513d601f19601f8201168201806040525081019061040e91906106e9565b15949350505050565b600061044f848360018660405161042e9190610752565b9081526040519081900360200190205463ffffffff6104f882150290911716565b949350505050565b600080546040516368de040960e11b81526001600160a01b0385811660048301528392620100009004169063d1bc081290602401602060405180830381865afa1580156104a8573d6000803e3d6000fd5b505050506040513d601f19601f8201168201806040525081019061044f91906106e9565b600080828060200190518101906104e39190610739565b6001600160a01b038516311191505092915050565b6105006107a5565b565b60006020828403121561051457600080fd5b81356001600160e01b03198116811461052c57600080fd5b9392505050565b6001600160a01b038116811461054857600080fd5b50565b634e487b7160e01b600052604160045260246000fd5b600082601f83011261057257600080fd5b813567ffffffffffffffff8082111561058d5761058d61054b565b604051601f8301601f19908116603f011681019082821181831017156105b5576105b561054b565b816040528381528660208588010111156105ce57600080fd5b836020870160208301376000602085830101528094505050505092915050565b6000806040838503121561060157600080fd5b823561060c81610533565b9150602083013567ffffffffffffffff81111561062857600080fd5b61063485828601610561565b9150509250929050565b60006020828403121561065057600080fd5b813567ffffffffffffffff81111561066757600080fd5b61044f84828501610561565b60008060006060848603121561068857600080fd5b833561069381610533565b9250602084013567ffffffffffffffff808211156106b057600080fd5b6106bc87838801610561565b935060408601359150808211156106d257600080fd5b506106df86828701610561565b9150509250925092565b6000602082840312156106fb57600080fd5b8151801515811461052c57600080fd5b6000806040838503121561071e57600080fd5b825161072981610533565b6020939093015192949293505050565b60006020828403121561074b57600080fd5b5051919050565b6000825160005b818110156107735760208186018101518583015201610759565b506000920191825250919050565b6000806040838503121561079457600080fd5b505080516020909101519092909150565b634e487b7160e01b600052605160045260246000fdfea26469706673582212200af36bf8e5f6973e0553986d8f96b2c06b893c572e8274bf85e66d9dd2cd517364736f6c63430008150033",
  "devdoc": {
    "details": "Contract for managing restrictions for creating and claiming gifts",
    "events": {
      "Initialized(uint8)": {
        "details": "Triggered when the contract has been initialized or reinitialized."
      }
    },
    "kind": "dev",
    "methods": {
      "checkRestriction(address,string,bytes)": {
        "details": "Checks if a user satisfies a specific restriction.",
        "params": {
          "args": "Additional arguments for the restriction.",
          "id": "The ID of the restriction.",
          "user": "The address of the user."
        },
        "returns": {
          "_0": "A boolean indicating if the user satisfies the restriction."
        }
      },
      "hasBlessingStatus(address,bytes)": {
        "details": "Checks if a user has a specific Atia's blessing status.",
        "params": {
          "args": "Additional arguments for the restriction.",
          "user": "The address of the user."
        },
        "returns": {
          "_0": "A boolean indicating if the user has the requested blessing status."
        }
      },
      "hasBlessingStreak(address,bytes)": {
        "details": "Checks if a user has a blessing streak greater than a minimum amount.",
        "params": {
          "args": "Additional arguments for the restriction.",
          "user": "The address of the user."
        },
        "returns": {
          "_0": "A boolean indicating if the user has a blessing streak greater than the minimum amount."
        }
      },
      "hasRonBalance(address,bytes)": {
        "details": "Checks if a user's balance of RON tokens is greater than a minimum amount.",
        "params": {
          "args": "Additional arguments for the restriction.",
          "user": "The address of the user."
        },
        "returns": {
          "_0": "A boolean indicating if the user's RON token balance is greater than the minimum amount."
        }
      },
      "hasTokenBalance(address,bytes)": {
        "details": "Checks if a user's balance of a specific token is greater than a minimum amount.",
        "params": {
          "args": "Additional arguments for the restriction.",
          "user": "The address of the user."
        },
        "returns": {
          "_0": "A boolean indicating if the user's token balance is greater than the minimum amount."
        }
      },
      "isBlessingActive(address,bytes)": {
        "details": "Checks if a user's blessing is currently active.",
        "params": {
          "user": "The address of the user."
        },
        "returns": {
          "_0": "A boolean indicating if the user's blessing is active."
        }
      },
      "isBlessingInactive(address,bytes)": {
        "details": "Checks if a user's blessing is currently inactive.",
        "params": {
          "user": "The address of the user."
        },
        "returns": {
          "_0": "A boolean indicating if the user's blessing is inactive."
        }
      },
      "isValidRestriction(string)": {
        "details": "Checks if a restriction with the given ID exists.",
        "params": {
          "id": "The ID of the restriction."
        },
        "returns": {
          "_0": "A boolean indicating if the restriction exists."
        }
      },
      "supportsInterface(bytes4)": {
        "details": "See {IERC165-supportsInterface}."
      }
    },
    "title": "RestrictionControl",
    "version": 1
  },
  "userdoc": {
    "kind": "user",
    "methods": {},
    "version": 1
  },
  "storageLayout": {
    "storage": [
      {
        "astId": 6,
        "contract": "contracts/RestrictionControl/RestrictionControl.sol:RestrictionControl",
        "label": "_initialized",
        "offset": 0,
        "slot": "0",
        "type": "t_uint8"
      },
      {
        "astId": 9,
        "contract": "contracts/RestrictionControl/RestrictionControl.sol:RestrictionControl",
        "label": "_initializing",
        "offset": 1,
        "slot": "0",
        "type": "t_bool"
      },
      {
        "astId": 10275,
        "contract": "contracts/RestrictionControl/RestrictionControl.sol:RestrictionControl",
        "label": "atiaShrineContract",
        "offset": 2,
        "slot": "0",
        "type": "t_contract(IAtiaShrine)9773"
      },
      {
        "astId": 10293,
        "contract": "contracts/RestrictionControl/RestrictionControl.sol:RestrictionControl",
        "label": "conditions",
        "offset": 0,
        "slot": "1",
        "type": "t_mapping(t_string_memory_ptr,t_struct(Restriction)10288_storage)"
      }
    ],
    "types": {
      "t_bool": {
        "encoding": "inplace",
        "label": "bool",
        "numberOfBytes": "1"
      },
      "t_contract(IAtiaShrine)9773": {
        "encoding": "inplace",
        "label": "contract IAtiaShrine",
        "numberOfBytes": "20"
      },
      "t_function_internal_view(t_address,t_bytes_memory_ptr)returns(t_bool)": {
        "encoding": "inplace",
        "label": "function (address,bytes) view returns (bool)",
        "numberOfBytes": "8"
      },
      "t_mapping(t_string_memory_ptr,t_struct(Restriction)10288_storage)": {
        "encoding": "mapping",
        "key": "t_string_memory_ptr",
        "label": "mapping(string => struct RestrictionControl.Restriction)",
        "numberOfBytes": "32",
        "value": "t_struct(Restriction)10288_storage"
      },
      "t_string_memory_ptr": {
        "encoding": "bytes",
        "label": "string",
        "numberOfBytes": "32"
      },
      "t_struct(Restriction)10288_storage": {
        "encoding": "inplace",
        "label": "struct RestrictionControl.Restriction",
        "members": [
          {
            "astId": 10285,
            "contract": "contracts/RestrictionControl/RestrictionControl.sol:RestrictionControl",
            "label": "conditionFunction",
            "offset": 0,
            "slot": "0",
            "type": "t_function_internal_view(t_address,t_bytes_memory_ptr)returns(t_bool)"
          },
          {
            "astId": 10287,
            "contract": "contracts/RestrictionControl/RestrictionControl.sol:RestrictionControl",
            "label": "exists",
            "offset": 8,
            "slot": "0",
            "type": "t_bool"
          }
        ],
        "numberOfBytes": "32"
      },
      "t_uint8": {
        "encoding": "inplace",
        "label": "uint8",
        "numberOfBytes": "1"
      }
    }
  }
}