{
  "address": "0xC1f6FBC6dA4234239f44BECCE0438545F8Cdbf5E",
  "abi": [
    {
      "inputs": [
        {
          "internalType": "address",
          "name": "_nativeTokenWrapper",
          "type": "address"
        },
        {
          "internalType": "address",
          "name": "_restrictionController",
          "type": "address"
        }
      ],
      "stateMutability": "nonpayable",
      "type": "constructor"
    },
    {
      "inputs": [],
      "name": "FailedtoRefundNativeToken",
      "type": "error"
    },
    {
      "inputs": [],
      "name": "GiftAlreadyCancelled",
      "type": "error"
    },
    {
      "inputs": [],
      "name": "GiftAlreadyClaimed",
      "type": "error"
    },
    {
      "inputs": [
        {
          "internalType": "uint256",
          "name": "available",
          "type": "uint256"
        },
        {
          "internalType": "uint256",
          "name": "required",
          "type": "uint256"
        }
      ],
      "name": "InsufficientBalance",
      "type": "error"
    },
    {
      "inputs": [],
      "name": "InvalidControllerAddress",
      "type": "error"
    },
    {
      "inputs": [],
      "name": "InvalidGift",
      "type": "error"
    },
    {
      "inputs": [
        {
          "internalType": "string",
          "name": "message",
          "type": "string"
        }
      ],
      "name": "InvalidPayload",
      "type": "error"
    },
    {
      "inputs": [],
      "name": "InvalidRestriction",
      "type": "error"
    },
    {
      "inputs": [],
      "name": "InvalidVerifier",
      "type": "error"
    },
    {
      "inputs": [],
      "name": "TooManyGifts",
      "type": "error"
    },
    {
      "inputs": [],
      "name": "TooManyGiftsToCancel",
      "type": "error"
    },
    {
      "inputs": [],
      "name": "TooManyRestrictions",
      "type": "error"
    },
    {
      "inputs": [],
      "name": "TooManyTokens",
      "type": "error"
    },
    {
      "inputs": [],
      "name": "Unauthorized",
      "type": "error"
    },
    {
      "inputs": [
        {
          "internalType": "string",
          "name": "restriction",
          "type": "string"
        }
      ],
      "name": "UnmetRestriction",
      "type": "error"
    },
    {
      "anonymous": false,
      "inputs": [
        {
          "indexed": false,
          "internalType": "address",
          "name": "_restrictionController",
          "type": "address"
        }
      ],
      "name": "ControllerUpdated",
      "type": "event"
    },
    {
      "anonymous": false,
      "inputs": [
        {
          "indexed": true,
          "internalType": "uint256",
          "name": "_giftID",
          "type": "uint256"
        }
      ],
      "name": "GiftCancelled",
      "type": "event"
    },
    {
      "anonymous": false,
      "inputs": [
        {
          "indexed": true,
          "internalType": "uint256",
          "name": "_giftID",
          "type": "uint256"
        },
        {
          "indexed": false,
          "internalType": "address",
          "name": "_claimedBy",
          "type": "address"
        }
      ],
      "name": "GiftClaimed",
      "type": "event"
    },
    {
      "anonymous": false,
      "inputs": [
        {
          "indexed": true,
          "internalType": "uint256",
          "name": "_giftID",
          "type": "uint256"
        },
        {
          "indexed": false,
          "internalType": "address",
          "name": "_createdBy",
          "type": "address"
        }
      ],
      "name": "GiftCreated",
      "type": "event"
    },
    {
      "anonymous": false,
      "inputs": [
        {
          "indexed": true,
          "internalType": "address",
          "name": "previousOwner",
          "type": "address"
        },
        {
          "indexed": true,
          "internalType": "address",
          "name": "newOwner",
          "type": "address"
        }
      ],
      "name": "OwnershipTransferred",
      "type": "event"
    },
    {
      "inputs": [],
      "name": "MAX_GIFTS_PER_CANCEL_TX",
      "outputs": [
        {
          "internalType": "uint256",
          "name": "",
          "type": "uint256"
        }
      ],
      "stateMutability": "view",
      "type": "function"
    },
    {
      "inputs": [],
      "name": "MAX_GIFTS_PER_CREATEGIFTS",
      "outputs": [
        {
          "internalType": "uint256",
          "name": "",
          "type": "uint256"
        }
      ],
      "stateMutability": "view",
      "type": "function"
    },
    {
      "inputs": [],
      "name": "MAX_RESTRICTIONS_PER_GIFT",
      "outputs": [
        {
          "internalType": "uint256",
          "name": "",
          "type": "uint256"
        }
      ],
      "stateMutability": "view",
      "type": "function"
    },
    {
      "inputs": [],
      "name": "MAX_TOKENS_PER_GIFT",
      "outputs": [
        {
          "internalType": "uint256",
          "name": "",
          "type": "uint256"
        }
      ],
      "stateMutability": "view",
      "type": "function"
    },
    {
      "inputs": [
        {
          "internalType": "uint256[]",
          "name": "_giftIDs",
          "type": "uint256[]"
        }
      ],
      "name": "cancelGifts",
      "outputs": [],
      "stateMutability": "nonpayable",
      "type": "function"
    },
    {
      "inputs": [
        {
          "internalType": "uint256",
          "name": "_giftID",
          "type": "uint256"
        },
        {
          "internalType": "address",
          "name": "_receiver",
          "type": "address"
        },
        {
          "internalType": "bytes",
          "name": "_signature",
          "type": "bytes"
        }
      ],
      "name": "claimGift",
      "outputs": [],
      "stateMutability": "nonpayable",
      "type": "function"
    },
    {
      "inputs": [
        {
          "components": [
            {
              "components": [
                {
                  "internalType": "address",
                  "name": "assetContract",
                  "type": "address"
                },
                {
                  "internalType": "uint256",
                  "name": "tokenId",
                  "type": "uint256"
                },
                {
                  "internalType": "uint256",
                  "name": "amount",
                  "type": "uint256"
                }
              ],
              "internalType": "struct IGifts.Token[]",
              "name": "tokens",
              "type": "tuple[]"
            },
            {
              "components": [
                {
                  "internalType": "string",
                  "name": "id",
                  "type": "string"
                },
                {
                  "internalType": "bytes",
                  "name": "args",
                  "type": "bytes"
                }
              ],
              "internalType": "struct IGifts.Restriction[]",
              "name": "restrictions",
              "type": "tuple[]"
            },
            {
              "internalType": "address",
              "name": "verifier",
              "type": "address"
            }
          ],
          "internalType": "struct IGifts.NewGiftPayload",
          "name": "_newGift",
          "type": "tuple"
        }
      ],
      "name": "createGift",
      "outputs": [],
      "stateMutability": "payable",
      "type": "function"
    },
    {
      "inputs": [
        {
          "components": [
            {
              "components": [
                {
                  "internalType": "address",
                  "name": "assetContract",
                  "type": "address"
                },
                {
                  "internalType": "uint256",
                  "name": "tokenId",
                  "type": "uint256"
                },
                {
                  "internalType": "uint256",
                  "name": "amount",
                  "type": "uint256"
                }
              ],
              "internalType": "struct IGifts.Token[]",
              "name": "tokens",
              "type": "tuple[]"
            },
            {
              "components": [
                {
                  "internalType": "string",
                  "name": "id",
                  "type": "string"
                },
                {
                  "internalType": "bytes",
                  "name": "args",
                  "type": "bytes"
                }
              ],
              "internalType": "struct IGifts.Restriction[]",
              "name": "restrictions",
              "type": "tuple[]"
            },
            {
              "internalType": "address",
              "name": "verifier",
              "type": "address"
            }
          ],
          "internalType": "struct IGifts.NewGiftPayload[]",
          "name": "_newGift",
          "type": "tuple[]"
        }
      ],
      "name": "createGifts",
      "outputs": [],
      "stateMutability": "payable",
      "type": "function"
    },
    {
      "inputs": [],
      "name": "emergencyExit",
      "outputs": [],
      "stateMutability": "nonpayable",
      "type": "function"
    },
    {
      "inputs": [
        {
          "internalType": "address",
          "name": "_verifier",
          "type": "address"
        }
      ],
      "name": "getGift",
      "outputs": [
        {
          "components": [
            {
              "internalType": "uint256",
              "name": "giftID",
              "type": "uint256"
            },
            {
              "internalType": "uint256",
              "name": "createdAt",
              "type": "uint256"
            },
            {
              "internalType": "address",
              "name": "creator",
              "type": "address"
            },
            {
              "internalType": "bool",
              "name": "claimed",
              "type": "bool"
            },
            {
              "internalType": "bool",
              "name": "cancelled",
              "type": "bool"
            },
            {
              "components": [
                {
                  "internalType": "string",
                  "name": "id",
                  "type": "string"
                },
                {
                  "internalType": "bytes",
                  "name": "args",
                  "type": "bytes"
                }
              ],
              "internalType": "struct IGifts.Restriction[]",
              "name": "restrictions",
              "type": "tuple[]"
            },
            {
              "components": [
                {
                  "internalType": "address",
                  "name": "assetContract",
                  "type": "address"
                },
                {
                  "internalType": "uint256",
                  "name": "tokenId",
                  "type": "uint256"
                },
                {
                  "internalType": "uint256",
                  "name": "amount",
                  "type": "uint256"
                }
              ],
              "internalType": "struct IGifts.Token[]",
              "name": "tokens",
              "type": "tuple[]"
            }
          ],
          "internalType": "struct IGifts.Gift",
          "name": "currentGift",
          "type": "tuple"
        }
      ],
      "stateMutability": "view",
      "type": "function"
    },
    {
      "inputs": [],
      "name": "getUnclaimedGifts",
      "outputs": [
        {
          "components": [
            {
              "internalType": "uint256",
              "name": "giftID",
              "type": "uint256"
            },
            {
              "internalType": "uint256",
              "name": "createdAt",
              "type": "uint256"
            },
            {
              "internalType": "address",
              "name": "creator",
              "type": "address"
            },
            {
              "internalType": "bool",
              "name": "claimed",
              "type": "bool"
            },
            {
              "internalType": "bool",
              "name": "cancelled",
              "type": "bool"
            },
            {
              "components": [
                {
                  "internalType": "string",
                  "name": "id",
                  "type": "string"
                },
                {
                  "internalType": "bytes",
                  "name": "args",
                  "type": "bytes"
                }
              ],
              "internalType": "struct IGifts.Restriction[]",
              "name": "restrictions",
              "type": "tuple[]"
            },
            {
              "components": [
                {
                  "internalType": "address",
                  "name": "assetContract",
                  "type": "address"
                },
                {
                  "internalType": "uint256",
                  "name": "tokenId",
                  "type": "uint256"
                },
                {
                  "internalType": "uint256",
                  "name": "amount",
                  "type": "uint256"
                }
              ],
              "internalType": "struct IGifts.Token[]",
              "name": "tokens",
              "type": "tuple[]"
            }
          ],
          "internalType": "struct IGifts.Gift[]",
          "name": "giftsTemp",
          "type": "tuple[]"
        }
      ],
      "stateMutability": "view",
      "type": "function"
    },
    {
      "inputs": [
        {
          "internalType": "address",
          "name": "forwarder",
          "type": "address"
        }
      ],
      "name": "isTrustedForwarder",
      "outputs": [
        {
          "internalType": "bool",
          "name": "",
          "type": "bool"
        }
      ],
      "stateMutability": "view",
      "type": "function"
    },
    {
      "inputs": [
        {
          "internalType": "address",
          "name": "",
          "type": "address"
        },
        {
          "internalType": "address",
          "name": "",
          "type": "address"
        },
        {
          "internalType": "uint256[]",
          "name": "",
          "type": "uint256[]"
        },
        {
          "internalType": "uint256[]",
          "name": "",
          "type": "uint256[]"
        },
        {
          "internalType": "bytes",
          "name": "",
          "type": "bytes"
        }
      ],
      "name": "onERC1155BatchReceived",
      "outputs": [
        {
          "internalType": "bytes4",
          "name": "",
          "type": "bytes4"
        }
      ],
      "stateMutability": "nonpayable",
      "type": "function"
    },
    {
      "inputs": [
        {
          "internalType": "address",
          "name": "",
          "type": "address"
        },
        {
          "internalType": "address",
          "name": "",
          "type": "address"
        },
        {
          "internalType": "uint256",
          "name": "",
          "type": "uint256"
        },
        {
          "internalType": "uint256",
          "name": "",
          "type": "uint256"
        },
        {
          "internalType": "bytes",
          "name": "",
          "type": "bytes"
        }
      ],
      "name": "onERC1155Received",
      "outputs": [
        {
          "internalType": "bytes4",
          "name": "",
          "type": "bytes4"
        }
      ],
      "stateMutability": "nonpayable",
      "type": "function"
    },
    {
      "inputs": [
        {
          "internalType": "address",
          "name": "",
          "type": "address"
        },
        {
          "internalType": "address",
          "name": "",
          "type": "address"
        },
        {
          "internalType": "uint256",
          "name": "",
          "type": "uint256"
        },
        {
          "internalType": "bytes",
          "name": "",
          "type": "bytes"
        }
      ],
      "name": "onERC721Received",
      "outputs": [
        {
          "internalType": "bytes4",
          "name": "",
          "type": "bytes4"
        }
      ],
      "stateMutability": "nonpayable",
      "type": "function"
    },
    {
      "inputs": [],
      "name": "owner",
      "outputs": [
        {
          "internalType": "address",
          "name": "",
          "type": "address"
        }
      ],
      "stateMutability": "view",
      "type": "function"
    },
    {
      "inputs": [],
      "name": "renounceOwnership",
      "outputs": [],
      "stateMutability": "nonpayable",
      "type": "function"
    },
    {
      "inputs": [
        {
          "internalType": "bytes4",
          "name": "interfaceId",
          "type": "bytes4"
        }
      ],
      "name": "supportsInterface",
      "outputs": [
        {
          "internalType": "bool",
          "name": "",
          "type": "bool"
        }
      ],
      "stateMutability": "view",
      "type": "function"
    },
    {
      "inputs": [
        {
          "internalType": "address",
          "name": "newOwner",
          "type": "address"
        }
      ],
      "name": "transferOwnership",
      "outputs": [],
      "stateMutability": "nonpayable",
      "type": "function"
    },
    {
      "inputs": [
        {
          "internalType": "address",
          "name": "_restrictionController",
          "type": "address"
        }
      ],
      "name": "updateController",
      "outputs": [],
      "stateMutability": "nonpayable",
      "type": "function"
    },
    {
      "stateMutability": "payable",
      "type": "receive"
    }
  ],
  "transactionHash": "0x7c34929a05fbee9edc3d1de192c6838064372cba6ef5616ecbe3d4ef03396b35",
  "args": [
    "0xe514d9DEB7966c8BE0ca922de8a064264eA6bcd4",
    "0x0A2CCB496A78cB855673c679D14c42A9d8b0DFe0"
  ],
  "numDeployments": 1,
  "solcInputHash": "550fb2d37d185848d644b50a7698ba93",
  "bytecode": "0x60c06040523480156200001157600080fd5b50604051620032943803806200329483398101604081905262000034916200012b565b60006080526200004d6200004762000076565b62000087565b6001600160a01b0391821660a052600180546001600160a01b0319169190921617905562000163565b600062000082620000d7565b905090565b600080546001600160a01b038381166001600160a01b0319831681178455604051919092169283917f8be0079c531659141344cd1fd0a4f28419497f9722a3daafe3b4186f6b6457e09190a35050565b6080516000906001600160a01b031633148015620000f6575060143610155b1562000109575060131936013560601c90565b503390565b80516001600160a01b03811681146200012657600080fd5b919050565b600080604083850312156200013f57600080fd5b6200014a836200010e565b91506200015a602084016200010e565b90509250929050565b60805160a0516130fd620001976000396000818161012a0152611af70152600081816102bc015261120101526130fd6000f3fe6080604052600436106101235760003560e01c80638278d2ca116100a0578063e3e67bc111610064578063e3e67bc1146103cb578063efe92d4f146103e0578063f23a6e6114610402578063f2fde38b1461042e578063f818aed9146103cb57600080fd5b80638278d2ca146103415780638da5cb5b14610354578063bc197c811461037c578063c08d24c4146103a8578063c3d09b6c146103cb57600080fd5b80635641ec03116100e75780635641ec031461028a578063572b6c051461029f5780635ac66556146102ec578063715018a61461030c578063770873ad1461032157600080fd5b806301ffc9a7146101bc57806306cb5b66146101f1578063150b7a02146102115780632310370c1461024a5780633b0df0d71461025d57600080fd5b366101b7577f00000000000000000000000000000000000000000000000000000000000000006001600160a01b031661015a61044e565b6001600160a01b0316146101b55760405162461bcd60e51b815260206004820181905260248201527f63616c6c6572206e6f74206e617469766520746f6b656e20777261707065722e60448201526064015b60405180910390fd5b005b600080fd5b3480156101c857600080fd5b506101dc6101d73660046124c4565b61045d565b60405190151581526020015b60405180910390f35b3480156101fd57600080fd5b506101b561020c36600461250a565b610494565b34801561021d57600080fd5b5061023161022c3660046125dc565b610571565b6040516001600160e01b031990911681526020016101e8565b6101b5610258366004612647565b610582565b34801561026957600080fd5b5061027d61027836600461250a565b61066e565b6040516101e8919061280d565b34801561029657600080fd5b506101b5610928565b3480156102ab57600080fd5b506101dc6102ba36600461250a565b7f00000000000000000000000000000000000000000000000000000000000000006001600160a01b0390811691161490565b3480156102f857600080fd5b506101b5610307366004612820565b6109a1565b34801561031857600080fd5b506101b5610c47565b34801561032d57600080fd5b506101b561033c3660046128ec565b610c5b565b6101b561034f3660046128ec565b610cda565b34801561036057600080fd5b506000546040516001600160a01b0390911681526020016101e8565b34801561038857600080fd5b506102316103973660046129a1565b63bc197c8160e01b95945050505050565b3480156103b457600080fd5b506103bd600a81565b6040519081526020016101e8565b3480156103d757600080fd5b506103bd606481565b3480156103ec57600080fd5b506103f5610e19565b6040516101e89190612a4e565b34801561040e57600080fd5b5061023161041d366004612ab0565b63f23a6e6160e01b95945050505050565b34801561043a57600080fd5b506101b561044936600461250a565b611187565b60006104586111fd565b905090565b60006001600160e01b03198216630271189760e51b148061048e57506301ffc9a760e01b6001600160e01b03198316145b92915050565b61049c61124f565b806001600160a01b03163b6000036104c757604051631cf943f760e31b815260040160405180910390fd5b6104d9816001600160a01b03166112c8565b6104f657604051631cf943f760e31b815260040160405180910390fd5b6001600160a01b03811661051d57604051631cf943f760e31b815260040160405180910390fd5b600180546001600160a01b0319166001600160a01b0383169081179091556040519081527f1304018cfe79741dcf02ba6b61d39cc4757d59395d03224d9925c7aa830021469060200160405180910390a150565b630a85bd0160e11b5b949350505050565b3460008061058f8461133f565b909250905061059e8184612b2e565b925082156106235760006105b061044e565b6001600160a01b03168460405160006040518083038185875af1925050503d80600081146105fa576040519150601f19603f3d011682016040523d82523d6000602084013e6105ff565b606091505b5050905080610621576040516310dc860560e11b815260040160405180910390fd5b505b817f43a79fd36fcb8b47d4c508d7b908b17071296b2ff78d1dcced07087c9017f22861064d61044e565b6040516001600160a01b03909116815260200160405180910390a250505050565b61067661247a565b6001600160a01b038083166000908152600460209081526040808320548084526003808452828520835160e0810185528154815260018201548187015260028201549788168186015260ff600160a01b8904811615156060830152600160a81b909804909716151560808801529081018054845181870281018701909552808552929695919460a08701949391929084015b8282101561085e578382906000526020600020906002020160405180604001604052908160008201805461073b90612b41565b80601f016020809104026020016040519081016040528092919081815260200182805461076790612b41565b80156107b45780601f10610789576101008083540402835291602001916107b4565b820191906000526020600020905b81548152906001019060200180831161079757829003601f168201915b505050505081526020016001820180546107cd90612b41565b80601f01602080910402602001604051908101604052809291908181526020018280546107f990612b41565b80156108465780601f1061081b57610100808354040283529160200191610846565b820191906000526020600020905b81548152906001019060200180831161082957829003601f168201915b50505050508152505081526020019060010190610708565b50505050815260200160048201805480602002602001604051908101604052809291908181526020016000905b828210156108e0576000848152602090819020604080516060810182526003860290920180546001600160a01b031683526001808201548486015260029091015491830191909152908352909201910161088b565b505050915250506000828152600360205260409020600201549092506001600160a01b031661092257604051632fde71b560e11b815260040160405180910390fd5b50919050565b61093061124f565b60015b600254811161099e57600081815260036020526040902060020154600160a01b900460ff1615801561097e5750600081815260036020526040902060020154600160a81b900460ff16155b1561098c5761098c816113e6565b8061099681612b75565b915050610933565b50565b836109ab8161150f565b60006109b9868686866115a6565b6001600160a01b03811660009081526004602052604090205490915086146109f45760405163baa3de5f60e01b815260040160405180910390fd5b600086815260036020526040902060028101546001600160a01b03808816911603610a31576040516282b42960e81b815260040160405180910390fd5b600381015460005b81811015610b56576001546003840180546000926001600160a01b03169163a8bdda04918c919086908110610a7057610a70612b8e565b9060005260206000209060020201600001876003018681548110610a9657610a96612b8e565b90600052602060002090600202016001016040518463ffffffff1660e01b8152600401610ac593929190612c21565b602060405180830381865afa158015610ae2573d6000803e3d6000fd5b505050506040513d601f19601f82011682018060405250810190610b069190612c61565b905080610b4d57836003018281548110610b2257610b22612b8e565b90600052602060002090600202016000016040516377a938e960e01b81526004016101ac9190612c83565b50600101610a39565b506000888152600360209081526040808320600201805460ff60a01b1916600160a01b179055600485018054825181850281018501909352808352610bfe9430948d949392919084015b82821015610bf5576000848152602090819020604080516060810182526003860290920180546001600160a01b0316835260018082015484860152600290910154918301919091529083529092019101610ba0565b50505050611675565b506040516001600160a01b038816815288907fb8c591be1b81bbbab75d227e74047ce00d28805b341aea3327065d743a0b97c09060200160405180910390a25050505050505050565b610c4f61124f565b610c596000611789565b565b806000819003610c7e57604051632fde71b560e11b815260040160405180910390fd5b6064811115610ca057604051633b043d7160e01b815260040160405180910390fd5b60005b81811015610cd457610ccc848483818110610cc057610cc0612b8e565b905060200201356113e6565b600101610ca3565b50505050565b806064811115610cfd57604051635ec07a2160e11b815260040160405180910390fd5b3460005b82811015610d9057600080610d38878785818110610d2157610d21612b8e565b9050602002810190610d339190612c96565b61133f565b915091508084039350817f43a79fd36fcb8b47d4c508d7b908b17071296b2ff78d1dcced07087c9017f228610d6b61044e565b6040516001600160a01b03909116815260200160405180910390a25050600101610d01565b508015610cd4576000610da161044e565b6001600160a01b03168260405160006040518083038185875af1925050503d8060008114610deb576040519150601f19603f3d011682016040523d82523d6000602084013e610df0565b606091505b5050905080610e12576040516310dc860560e11b815260040160405180910390fd5b5050505050565b60606002546001600160401b03811115610e3557610e35612527565b604051908082528060200260200182016040528015610e6e57816020015b610e5b61247a565b815260200190600190039081610e535790505b509050600060015b600254811161118157610e8761044e565b6000828152600360205260409020600201546001600160a01b039081169116148015610ecc5750600081815260036020526040902060020154600160a01b900460ff16155b8015610ef15750600081815260036020526040902060020154600160a81b900460ff16155b15611179576000818152600360208181526040808420815160e0810183528154815260018201548185015260028201546001600160a01b0381168285015260ff600160a01b8204811615156060840152600160a81b909104161515608082015293810180548351818602810186019094528084529495919460a08701949192909184015b828210156110cb5783829060005260206000209060020201604051806040016040529081600082018054610fa890612b41565b80601f0160208091040260200160405190810160405280929190818152602001828054610fd490612b41565b80156110215780601f10610ff657610100808354040283529160200191611021565b820191906000526020600020905b81548152906001019060200180831161100457829003601f168201915b5050505050815260200160018201805461103a90612b41565b80601f016020809104026020016040519081016040528092919081815260200182805461106690612b41565b80156110b35780601f10611088576101008083540402835291602001916110b3565b820191906000526020600020905b81548152906001019060200180831161109657829003601f168201915b50505050508152505081526020019060010190610f75565b50505050815260200160048201805480602002602001604051908101604052809291908181526020016000905b8282101561114d576000848152602090819020604080516060810182526003860290920180546001600160a01b03168352600180820154848601526002909101549183019190915290835290920191016110f8565b505050508152505083838151811061116757611167612b8e565b60200260200101819052506001820191505b600101610e76565b50815290565b61118f61124f565b6001600160a01b0381166111f45760405162461bcd60e51b815260206004820152602660248201527f4f776e61626c653a206e6577206f776e657220697320746865207a65726f206160448201526564647265737360d01b60648201526084016101ac565b61099e81611789565b60007f00000000000000000000000000000000000000000000000000000000000000006001600160a01b031633148015611238575060143610155b1561124a575060131936013560601c90565b503390565b61125761044e565b6001600160a01b03166112726000546001600160a01b031690565b6001600160a01b031614610c595760405162461bcd60e51b815260206004820181905260248201527f4f776e61626c653a2063616c6c6572206973206e6f7420746865206f776e657260448201526064016101ac565b6040516301ffc9a760e01b815263666b763360e11b60048201526000906001600160a01b038316906301ffc9a7906024015b602060405180830381865afa925050508015611333575060408051601f3d908101601f1916820190925261133091810190612c61565b60015b61048e57506000919050565b60008061137161134f8480612cb6565b61135c6020870187612cfe565b61136c6060890160408a0161250a565b6117d9565b91506113df61137e61044e565b306113898680612cb6565b808060200260200160405190810160405280939291908181526020016000905b828210156113d5576113c660608302860136819003810190612d47565b815260200190600101906113a9565b5050505050611675565b9050915091565b806113f08161150f565b600082815260036020526040902061140661044e565b60028201546001600160a01b03908116911614611435576040516282b42960e81b815260040160405180910390fd5b60008381526003602090815260408083206002908101805460ff60a81b1916600160a81b1790558401546004850180548351818602810186019094528084526114de9530956001600160a01b039094169493840182821015610bf5576000848152602090819020604080516060810182526003860290920180546001600160a01b0316835260018082015484860152600290910154918301919091529083529092019101610ba0565b5060405183907fb0de3eab6b6ddc8846672c8103857e3205c92e806bf73ad25285a03a0857ffeb90600090a2505050565b60008181526003602052604090206002810154600160a81b900460ff161561154a576040516316a2a9c760e21b815260040160405180910390fd5b6002810154600160a01b900460ff161561157757604051630666013b60e01b815260040160405180910390fd5b60028101546001600160a01b03166115a257604051632fde71b560e11b815260040160405180910390fd5b5050565b60008085856040516020016115d792919091825260601b6bffffffffffffffffffffffff1916602082015260340190565b6040516020818303038152906040528051906020012090506000611628827f19457468657265756d205369676e6564204d6573736167653a0a3332000000006000908152601c91909152603c902090565b905061166a8186868080601f016020809104026020016040519081016040528093929190818152602001838380828437600092019190915250611a8a92505050565b979650505050505050565b8051600090815b8181101561173f576001600160a01b038516301480156116de575073eeeeeeeeeeeeeeeeeeeeeeeeeeeeeeeeeeeeeeee6001600160a01b03168482815181106116c7576116c7612b8e565b6020026020010151600001516001600160a01b0316145b15611713578381815181106116f5576116f5612b8e565b6020026020010151604001518361170c9190612da8565b9250611737565b611737868686848151811061172a5761172a612b8e565b6020026020010151611aa6565b60010161167c565b508115611781576040805160608101825273eeeeeeeeeeeeeeeeeeeeeeeeeeeeeeeeeeeeeeee81526000602082015290810183905261177f868683611aa6565b505b509392505050565b600080546001600160a01b038381166001600160a01b0319831681178455604051919092169283917f8be0079c531659141344cd1fd0a4f28419497f9722a3daafe3b4186f6b6457e09190a35050565b60006001600160a01b0382166118025760405163baa3de5f60e01b815260040160405180910390fd5b6001600160a01b038216600090815260046020526040902054156118395760405163baa3de5f60e01b815260040160405180910390fd5b84606481111561185c57604051633a4733d960e11b815260040160405180910390fd5b6002805485919060009061186f90612b75565b9182905550925060005b828110156118dc5760008481526003602052604090206004018989838181106118a4576118a4612b8e565b8354600181018555600094855260209094206060909102929092019260030290910190506118d28282612dbb565b5050600101611879565b508015611a2e57600a8111156119055760405163c636dd7f60e01b815260040160405180910390fd5b60005b81811015611a2c576001546001600160a01b031663646b366288888481811061193357611933612b8e565b90506020028101906119459190612df9565b61194f9080612e0f565b6040518363ffffffff1660e01b815260040161196c929190612e55565b602060405180830381865afa158015611989573d6000803e3d6000fd5b505050506040513d601f19601f820116820180604052508101906119ad9190612c61565b6119ca57604051632c3a71e360e21b815260040160405180910390fd5b6000848152600360208190526040909120018787838181106119ee576119ee612b8e565b9050602002810190611a009190612df9565b815460018101835560009283526020909220909160020201611a228282612f91565b5050600101611908565b505b611a3661044e565b60008481526003602090815260408083206002810180546001600160a01b0319166001600160a01b039687161790554260018201558790559690921681526004909152939093208290555095945050505050565b6000806000611a998585611c3e565b9150915061178181611c83565b80516001600160a01b031673eeeeeeeeeeeeeeeeeeeeeeeeeeeeeeeeeeeeeeee1480611ae157508051611ae1906001600160a01b0316611dcd565b15611b2057611b1b8160000151848484604001517f0000000000000000000000000000000000000000000000000000000000000000611e5b565b505050565b8051611b34906001600160a01b0316611faa565b15611bb05780516020820151604051632142170760e11b81526001600160a01b038681166004830152858116602483015260448201929092529116906342842e0e90606401600060405180830381600087803b158015611b9357600080fd5b505af1158015611ba7573d6000803e3d6000fd5b50505050505050565b8051611bc4906001600160a01b0316611fe0565b15611b1b57805160208201516040808401519051637921219560e11b81526001600160a01b03878116600483015286811660248301526044820193909352606481019190915260a06084820152600060a482015291169063f242432a9060c401600060405180830381600087803b158015611b9357600080fd5b6000808251604103611c745760208301516040840151606085015160001a611c6887828585612016565b94509450505050611c7c565b506000905060025b9250929050565b6000816004811115611c9757611c97613073565b03611c9f5750565b6001816004811115611cb357611cb3613073565b03611d005760405162461bcd60e51b815260206004820152601860248201527f45434453413a20696e76616c6964207369676e6174757265000000000000000060448201526064016101ac565b6002816004811115611d1457611d14613073565b03611d615760405162461bcd60e51b815260206004820152601f60248201527f45434453413a20696e76616c6964207369676e6174757265206c656e6774680060448201526064016101ac565b6003816004811115611d7557611d75613073565b0361099e5760405162461bcd60e51b815260206004820152602260248201527f45434453413a20696e76616c6964207369676e6174757265202773272076616c604482015261756560f01b60648201526084016101ac565b6000611dd882611faa565b15611de557506000919050565b6040516370a0823160e01b8152600060048201526001600160a01b038316906370a0823190602401602060405180830381865afa925050508015611e46575060408051601f3d908101601f19168201909252611e4391810190613089565b60015b611e5257506000919050565b50600192915050565b8115610e125773eeeeeeeeeeeeeeeeeeeeeeeeeeeeeeeeeeeeeeed196001600160a01b03861601611f9e57306001600160a01b03851603611f0057604051632e1a7d4d60e01b8152600481018390526001600160a01b03821690632e1a7d4d90602401600060405180830381600087803b158015611ed857600080fd5b505af1158015611eec573d6000803e3d6000fd5b50505050611efb8383836120da565b610e12565b306001600160a01b03841603611f935734821115611f3a5760405163cf47918160e01b8152346004820152602481018390526044016101ac565b806001600160a01b031663d0e30db0836040518263ffffffff1660e01b81526004016000604051808303818588803b158015611f7557600080fd5b505af1158015611f89573d6000803e3d6000fd5b5050505050610e12565b611efb8383836120da565b610e128585858561219f565b6040516301ffc9a760e01b81526380ac58cd60e01b60048201526000906001600160a01b038316906301ffc9a7906024016112fa565b6040516301ffc9a760e01b8152636cdb3d1360e11b60048201526000906001600160a01b038316906301ffc9a7906024016112fa565b6000807f7fffffffffffffffffffffffffffffff5d576e7357a4501ddfe92f46681b20a083111561204d57506000905060036120d1565b6040805160008082526020820180845289905260ff881692820192909252606081018690526080810185905260019060a0016020604051602081039080840390855afa1580156120a1573d6000803e3d6000fd5b5050604051601f1901519150506001600160a01b0381166120ca576000600192509250506120d1565b9150600090505b94509492505050565b6000836001600160a01b03168360405160006040518083038185875af1925050503d8060008114612127576040519150601f19603f3d011682016040523d82523d6000602084013e61212c565b606091505b5050905080610cd457816001600160a01b031663d0e30db0846040518263ffffffff1660e01b81526004016000604051808303818588803b15801561217057600080fd5b505af1158015612184573d6000803e3d6000fd5b50610cd4935050506001600160a01b038416905085856121f7565b816001600160a01b0316836001600160a01b03160315610cd457306001600160a01b038416036121e2576121dd6001600160a01b03851683836121f7565b610cd4565b610cd46001600160a01b03851684848461225a565b6040516001600160a01b038316602482015260448101829052611b1b90849063a9059cbb60e01b906064015b60408051601f198184030181529190526020810180516001600160e01b03166001600160e01b031990931692909217909152612292565b6040516001600160a01b0380851660248301528316604482015260648101829052610cd49085906323b872dd60e01b90608401612223565b60006122e7826040518060400160405280602081526020017f5361666545524332303a206c6f772d6c6576656c2063616c6c206661696c6564815250856001600160a01b03166123679092919063ffffffff16565b90508051600014806123085750808060200190518101906123089190612c61565b611b1b5760405162461bcd60e51b815260206004820152602a60248201527f5361666545524332303a204552433230206f7065726174696f6e20646964206e6044820152691bdd081cdd58d8d9595960b21b60648201526084016101ac565b606061057a848460008585600080866001600160a01b0316858760405161238e91906130a2565b60006040518083038185875af1925050503d80600081146123cb576040519150601f19603f3d011682016040523d82523d6000602084013e6123d0565b606091505b509150915061166a878383876060831561244b578251600003612444576001600160a01b0385163b6124445760405162461bcd60e51b815260206004820152601d60248201527f416464726573733a2063616c6c20746f206e6f6e2d636f6e747261637400000060448201526064016101ac565b508161057a565b61057a83838151156124605781518083602001fd5b8060405162461bcd60e51b81526004016101ac91906130b4565b6040518060e00160405280600081526020016000815260200160006001600160a01b0316815260200160001515815260200160001515815260200160608152602001606081525090565b6000602082840312156124d657600080fd5b81356001600160e01b0319811681146124ee57600080fd5b9392505050565b6001600160a01b038116811461099e57600080fd5b60006020828403121561251c57600080fd5b81356124ee816124f5565b634e487b7160e01b600052604160045260246000fd5b604051601f8201601f191681016001600160401b038111828210171561256557612565612527565b604052919050565b600082601f83011261257e57600080fd5b81356001600160401b0381111561259757612597612527565b6125aa601f8201601f191660200161253d565b8181528460208386010111156125bf57600080fd5b816020850160208301376000918101602001919091529392505050565b600080600080608085870312156125f257600080fd5b84356125fd816124f5565b9350602085013561260d816124f5565b92506040850135915060608501356001600160401b0381111561262f57600080fd5b61263b8782880161256d565b91505092959194509250565b60006020828403121561265957600080fd5b81356001600160401b0381111561266f57600080fd5b8201606081850312156124ee57600080fd5b60005b8381101561269c578181015183820152602001612684565b50506000910152565b600081518084526126bd816020860160208601612681565b601f01601f19169290920160200192915050565b600081518084526020808501945080840160005b8381101561272057815180516001600160a01b03168852838101518489015260409081015190880152606090960195908201906001016126e5565b509495945050505050565b600060e083018251845260208084015181860152604060018060a01b0381860151168187015260608501511515606087015260808501511515608087015260a085015160e060a088015283815180865261010095508589019150858160051b8a01019550848301925060005b818110156127e75789870360ff19018352835180518689526127bb878a01826126a5565b918801518983038a8a01529190506127d381836126a5565b985050509285019291850191600101612797565b50505050505060c083015184820360c086015261280482826126d1565b95945050505050565b6020815260006124ee602083018461272b565b6000806000806060858703121561283657600080fd5b843593506020850135612848816124f5565b925060408501356001600160401b038082111561286457600080fd5b818701915087601f83011261287857600080fd5b81358181111561288757600080fd5b88602082850101111561289957600080fd5b95989497505060200194505050565b60008083601f8401126128ba57600080fd5b5081356001600160401b038111156128d157600080fd5b6020830191508360208260051b8501011115611c7c57600080fd5b600080602083850312156128ff57600080fd5b82356001600160401b0381111561291557600080fd5b612921858286016128a8565b90969095509350505050565b600082601f83011261293e57600080fd5b813560206001600160401b0382111561295957612959612527565b8160051b61296882820161253d565b928352848101820192828101908785111561298257600080fd5b83870192505b8483101561166a57823582529183019190830190612988565b600080600080600060a086880312156129b957600080fd5b85356129c4816124f5565b945060208601356129d4816124f5565b935060408601356001600160401b03808211156129f057600080fd5b6129fc89838a0161292d565b94506060880135915080821115612a1257600080fd5b612a1e89838a0161292d565b93506080880135915080821115612a3457600080fd5b50612a418882890161256d565b9150509295509295909350565b6000602080830181845280855180835260408601915060408160051b870101925083870160005b82811015612aa357603f19888603018452612a9185835161272b565b94509285019290850190600101612a75565b5092979650505050505050565b600080600080600060a08688031215612ac857600080fd5b8535612ad3816124f5565b94506020860135612ae3816124f5565b9350604086013592506060860135915060808601356001600160401b03811115612b0c57600080fd5b612a418882890161256d565b634e487b7160e01b600052601160045260246000fd5b8181038181111561048e5761048e612b18565b600181811c90821680612b5557607f821691505b60208210810361092257634e487b7160e01b600052602260045260246000fd5b600060018201612b8757612b87612b18565b5060010190565b634e487b7160e01b600052603260045260246000fd5b60008154612bb181612b41565b808552602060018381168015612bce5760018114612be857612c16565b60ff1985168884015283151560051b880183019550612c16565b866000528260002060005b85811015612c0e5781548a8201860152908301908401612bf3565b890184019650505b505050505092915050565b6001600160a01b0384168152606060208201819052600090612c4590830185612ba4565b8281036040840152612c578185612ba4565b9695505050505050565b600060208284031215612c7357600080fd5b815180151581146124ee57600080fd5b6020815260006124ee6020830184612ba4565b60008235605e19833603018112612cac57600080fd5b9190910192915050565b6000808335601e19843603018112612ccd57600080fd5b8301803591506001600160401b03821115612ce757600080fd5b6020019150606081023603821315611c7c57600080fd5b6000808335601e19843603018112612d1557600080fd5b8301803591506001600160401b03821115612d2f57600080fd5b6020019150600581901b3603821315611c7c57600080fd5b600060608284031215612d5957600080fd5b604051606081018181106001600160401b0382111715612d7b57612d7b612527565b6040528235612d89816124f5565b8152602083810135908201526040928301359281019290925250919050565b8082018082111561048e5761048e612b18565b8135612dc6816124f5565b81546001600160a01b0319166001600160a01b039190911617815560208201356001820155604090910135600290910155565b60008235603e19833603018112612cac57600080fd5b6000808335601e19843603018112612e2657600080fd5b8301803591506001600160401b03821115612e4057600080fd5b602001915036819003821315611c7c57600080fd5b60208152816020820152818360408301376000818301604090810191909152601f909201601f19160101919050565b601f821115611b1b57600081815260208120601f850160051c81016020861015612eab5750805b601f850160051c820191505b81811015612eca57828155600101612eb7565b505050505050565b6001600160401b03831115612ee957612ee9612527565b612efd83612ef78354612b41565b83612e84565b6000601f841160018114612f315760008515612f195750838201355b600019600387901b1c1916600186901b178355610e12565b600083815260209020601f19861690835b82811015612f625786850135825560209485019460019092019101612f42565b5086821015612f7f5760001960f88860031b161c19848701351681555b505060018560011b0183555050505050565b612f9b8283612e0f565b6001600160401b03811115612fb257612fb2612527565b612fc681612fc08554612b41565b85612e84565b6000601f821160018114612ffa5760008315612fe25750838201355b600019600385901b1c1916600184901b178555613054565b600085815260209020601f19841690835b8281101561302b578685013582556020948501946001909201910161300b565b50848210156130485760001960f88660031b161c19848701351681555b505060018360011b0185555b505050506130656020830183612e0f565b610cd4818360018601612ed2565b634e487b7160e01b600052602160045260246000fd5b60006020828403121561309b57600080fd5b5051919050565b60008251612cac818460208701612681565b6020815260006124ee60208301846126a556fea26469706673582212202812d94fd94a06ee06b3cf2a776ee7b0cea398953bdbc6d1e0cfd654e0ce77c864736f6c63430008150033",
  "devdoc": {
    "author": "dw",
    "details": "Allows trustlessly give ERC20/ERC721/ERC1115/RON (aka 'Token') gifts to not yet known recepients.",
    "kind": "dev",
    "methods": {
      "cancelGifts(uint256[])": {
        "details": "Cancel a set of gifts Requirements: - Valid _giftID[] list of unclaimed active gift",
        "params": {
          "_giftIDs": "[] array of gifts to be cancelled"
        }
      },
      "claimGift(uint256,address,bytes)": {
        "details": "Claims a gift using its secret and a signed message from the recipient. Requirements: - Valid _giftID and verified _signature of unclaimed gift",
        "params": {
          "_giftID": "ID of a gift",
          "_receiver": "Who should receive the gift",
          "_signature": "The signed message from the recipient of the gift."
        }
      },
      "constructor": {
        "details": "Constructor function",
        "params": {
          "_nativeTokenWrapper": "The address of the native token wrapper contract",
          "_restrictionController": "The address of the access control contract"
        }
      },
      "createGift(((address,uint256,uint256)[],(string,bytes)[],address))": {
        "details": "Creates a single gift in the specified payload",
        "params": {
          "_newGift": "The payload containing the gift information"
        }
      },
      "createGifts(((address,uint256,uint256)[],(string,bytes)[],address)[])": {
        "details": "Creates multiple gifts in the specified payload array",
        "params": {
          "_newGift": "The payloads containing the gift information"
        }
      },
      "emergencyExit()": {
        "details": "Emergency exit function to cancel all existing gifts and return the tokens to the gift creators."
      },
      "getGift(address)": {
        "details": "Retrieves the gift by using verifier address",
        "params": {
          "_verifier": "Verifier address"
        },
        "returns": {
          "currentGift": "The information of the gift"
        }
      },
      "getUnclaimedGifts()": {
        "details": "Get all unclaimed gifts created by a given address",
        "returns": {
          "giftsTemp": "The list of all active unclaimedd gifts for caller's address"
        }
      },
      "onERC721Received(address,address,uint256,bytes)": {
        "details": "See {IERC721Receiver-onERC721Received}. Always returns `IERC721Receiver.onERC721Received.selector`."
      },
      "owner()": {
        "details": "Returns the address of the current owner."
      },
      "renounceOwnership()": {
        "details": "Leaves the contract without owner. It will not be possible to call `onlyOwner` functions. Can only be called by the current owner. NOTE: Renouncing ownership will leave the contract without an owner, thereby disabling any functionality that is only available to the owner."
      },
      "supportsInterface(bytes4)": {
        "details": "See {IERC165-supportsInterface}."
      },
      "transferOwnership(address)": {
        "details": "Transfers ownership of the contract to a new account (`newOwner`). Can only be called by the current owner."
      },
      "updateController(address)": {
        "details": "Set the restriction controller contract address",
        "params": {
          "_restrictionController": "The address of the valid contract"
        }
      }
    },
    "title": "Token Gifting Smart Contract",
    "version": 1
  },
  "userdoc": {
    "kind": "user",
    "methods": {
      "updateController(address)": {
        "notice": "Need to make sure the restriction controller is correct"
      }
    },
    "version": 1
  },
  "storageLayout": {
    "storage": [
      {
        "astId": 1045,
        "contract": "contracts/Gifts.sol:Gifts",
        "label": "_owner",
        "offset": 0,
        "slot": "0",
        "type": "t_address"
      },
      {
        "astId": 8687,
        "contract": "contracts/Gifts.sol:Gifts",
        "label": "restrictionController",
        "offset": 0,
        "slot": "1",
        "type": "t_contract(IRestrictionControl)9895"
      },
      {
        "astId": 8703,
        "contract": "contracts/Gifts.sol:Gifts",
        "label": "giftCounter",
        "offset": 0,
        "slot": "2",
        "type": "t_uint256"
      },
      {
        "astId": 8708,
        "contract": "contracts/Gifts.sol:Gifts",
        "label": "allGifts",
        "offset": 0,
        "slot": "3",
        "type": "t_mapping(t_uint256,t_struct(Gift)9821_storage)"
      },
      {
        "astId": 8712,
        "contract": "contracts/Gifts.sol:Gifts",
        "label": "allVerifiers",
        "offset": 0,
        "slot": "4",
        "type": "t_mapping(t_address,t_uint256)"
      }
    ],
    "types": {
      "t_address": {
        "encoding": "inplace",
        "label": "address",
        "numberOfBytes": "20"
      },
      "t_array(t_struct(Restriction)9781_storage)dyn_storage": {
        "base": "t_struct(Restriction)9781_storage",
        "encoding": "dynamic_array",
        "label": "struct IGifts.Restriction[]",
        "numberOfBytes": "32"
      },
      "t_array(t_struct(Token)9789_storage)dyn_storage": {
        "base": "t_struct(Token)9789_storage",
        "encoding": "dynamic_array",
        "label": "struct IGifts.Token[]",
        "numberOfBytes": "32"
      },
      "t_bool": {
        "encoding": "inplace",
        "label": "bool",
        "numberOfBytes": "1"
      },
      "t_bytes_storage": {
        "encoding": "bytes",
        "label": "bytes",
        "numberOfBytes": "32"
      },
      "t_contract(IRestrictionControl)9895": {
        "encoding": "inplace",
        "label": "contract IRestrictionControl",
        "numberOfBytes": "20"
      },
      "t_mapping(t_address,t_uint256)": {
        "encoding": "mapping",
        "key": "t_address",
        "label": "mapping(address => uint256)",
        "numberOfBytes": "32",
        "value": "t_uint256"
      },
      "t_mapping(t_uint256,t_struct(Gift)9821_storage)": {
        "encoding": "mapping",
        "key": "t_uint256",
        "label": "mapping(uint256 => struct IGifts.Gift)",
        "numberOfBytes": "32",
        "value": "t_struct(Gift)9821_storage"
      },
      "t_string_storage": {
        "encoding": "bytes",
        "label": "string",
        "numberOfBytes": "32"
      },
      "t_struct(Gift)9821_storage": {
        "encoding": "inplace",
        "label": "struct IGifts.Gift",
        "members": [
          {
            "astId": 9804,
            "contract": "contracts/Gifts.sol:Gifts",
            "label": "giftID",
            "offset": 0,
            "slot": "0",
            "type": "t_uint256"
          },
          {
            "astId": 9806,
            "contract": "contracts/Gifts.sol:Gifts",
            "label": "createdAt",
            "offset": 0,
            "slot": "1",
            "type": "t_uint256"
          },
          {
            "astId": 9808,
            "contract": "contracts/Gifts.sol:Gifts",
            "label": "creator",
            "offset": 0,
            "slot": "2",
            "type": "t_address"
          },
          {
            "astId": 9810,
            "contract": "contracts/Gifts.sol:Gifts",
            "label": "claimed",
            "offset": 20,
            "slot": "2",
            "type": "t_bool"
          },
          {
            "astId": 9812,
            "contract": "contracts/Gifts.sol:Gifts",
            "label": "cancelled",
            "offset": 21,
            "slot": "2",
            "type": "t_bool"
          },
          {
            "astId": 9816,
            "contract": "contracts/Gifts.sol:Gifts",
            "label": "restrictions",
            "offset": 0,
            "slot": "3",
            "type": "t_array(t_struct(Restriction)9781_storage)dyn_storage"
          },
          {
            "astId": 9820,
            "contract": "contracts/Gifts.sol:Gifts",
            "label": "tokens",
            "offset": 0,
            "slot": "4",
            "type": "t_array(t_struct(Token)9789_storage)dyn_storage"
          }
        ],
        "numberOfBytes": "160"
      },
      "t_struct(Restriction)9781_storage": {
        "encoding": "inplace",
        "label": "struct IGifts.Restriction",
        "members": [
          {
            "astId": 9778,
            "contract": "contracts/Gifts.sol:Gifts",
            "label": "id",
            "offset": 0,
            "slot": "0",
            "type": "t_string_storage"
          },
          {
            "astId": 9780,
            "contract": "contracts/Gifts.sol:Gifts",
            "label": "args",
            "offset": 0,
            "slot": "1",
            "type": "t_bytes_storage"
          }
        ],
        "numberOfBytes": "64"
      },
      "t_struct(Token)9789_storage": {
        "encoding": "inplace",
        "label": "struct IGifts.Token",
        "members": [
          {
            "astId": 9784,
            "contract": "contracts/Gifts.sol:Gifts",
            "label": "assetContract",
            "offset": 0,
            "slot": "0",
            "type": "t_address"
          },
          {
            "astId": 9786,
            "contract": "contracts/Gifts.sol:Gifts",
            "label": "tokenId",
            "offset": 0,
            "slot": "1",
            "type": "t_uint256"
          },
          {
            "astId": 9788,
            "contract": "contracts/Gifts.sol:Gifts",
            "label": "amount",
            "offset": 0,
            "slot": "2",
            "type": "t_uint256"
          }
        ],
        "numberOfBytes": "96"
      },
      "t_uint256": {
        "encoding": "inplace",
        "label": "uint256",
        "numberOfBytes": "32"
      }
    }
  }
}